S00E000072687974686D2E737265637A
S113000049C0000066C0000064C0000062C0000077
S113001060C000005EC000005CC000005AC0000068
S113002058C0000056C0000054C0000052C0000078
S113003050C00000D9C000004CC000004AC00000FD
S113004048C0000046C0000044C0000042C0000098
S113005040C000003EC000003CC000003AC00000A8
S113006038C0000036C0000034C0000032C00000B8
S113007030C000002EC000002CC000002AC00000C8
S113008028C0000026C0000024C00000000E11118A
S1130090110A1B0011241FBECFEFD0E4DEBFCDBF79
S11300A012E0A0E0B1E0EEEAF6E100E00BBF02C02E
S11300B007900D92AE31B107D9F722E0AEE1B2E07C
S11300C001C01D92A336B207E1F70E94AC080C945C
S11300D0550B96CF181619065CF0089500002150B0
S11300E03109E1F74F5F5F4F4817590729F4089525
S11300F040E050E067E073E09B01F0CF2C9A88B9B0
S11301002D9A00002D9881E090E0E4CF2C9888B9D6
S11301102D9A00002D9882E090E0DCCF813110F41C
S11301208158F4CF8155F2CF81E0F0CF1F93CF9364
S1130130DF93182FEB01F8DF9881992351F0812F79
S1130140182F1F5FEBDF8991D9DF812F98819111DF
S1130150F7CFDF91CF911F91089584E690E0BADF45
S113016088E3D4DF86E0D2DF8FE0D0DF81E0CEDF2A
S11301708AE090E0AFCF6093D2017093D301809373
S1130180D4019093D5016093330270933402809329
S113019035029093360208958BE08093810088E0C5
S11301A090E0909389008093880082E080936F00B0
S11301B010928500109284008091D2019091D30115
S11301C0A091D401B091D50180933302909334026D
S11301D0A0933502B09336028FB780688FBF08951D
S11301E081E08093370208951F920F920FB60F9209
S11301F011240BB60F922F933F934F935F936F93FA
S11302007F938F939F93AF93BF93EF93FF938091CB
S1130210330290913402A0913502B09136020197D5
S1130220A109B1098093330290933402A09335025B
S1130230B0933602892B8A2B8B2B89F4D1DF8091E2
S1130240D2019091D301A091D401B091D5018093B2
S1130250330290933402A0933502B0933602FF9197
S1130260EF91BF91AF919F918F917F916F915F912A
S11302704F913F912F910F900BBE0F900FBE0F9097
S11302801F90189520E030E078E090E07BB96BB1E6
S1130290AC01022E02C0559547950A94E2F74170CD
S11302A05527462B4BB9599A2F5F3F4F28303105BC
S11302B069F75A9A1BB8089580913202882309F489
S11302C0CEC0809126028111CAC08091D0018823BA
S11302D069F0E0912402F0912502EE0FFF1FE85F20
S11302E0FE4F8081809300011092D0018091010122
S11302F0813021F482E080930101B1C0823021F485
S113030088E080930101ABC0883021F480E18093C0
S11303100101A5C0803121F480E2809301019FC0D6
S1130320803221F480E48093010199C0803439F44F
S113033080E88093010181E08093D00190C081E046
S11303408093010180912402909125022091020161
S1130350309103018217930708F064C001969093CB
S113036025028093240287329105A1F150F4833150
S11303709105E1F08D31910519F1099709F06FC0EC
S11303800BC08B339105D1F18935910509F440C037
S1130390C19709F064C028C08EE591E090930701ED
S11303A08093060181E08093230259C08CE291E09E
S11303B0909307018093060181E0809323024FC04C
S11303C08AEF90E0909307018093060181E0809387
S11303D0230245C088EC90E09093070180930601C6
S11303E081E0809323023BC086E990E0909307016B
S11303F08093060181E08093230231C084E690E07B
S1130400909307018093060181E08093230227C023
S113041082E390E0909307018093060181E080934A
S113042023021DC081E0809326021092320288EBE1
S11304309BE0909305018093040180912C0290919C
S11304402D0220912A0230912B022817390738F403
S113045090932B0280932A0281E080931E02809164
S1130460010110DF809101018BB98091000182B9F3
S113047080E090E00895CF92DF92EF92FF926B01BB
S11304807C01209138023091390240913A02509116
S11304903B0255D7882309F454C020E030E0A90179
S11304A0C701B6014CD7811106C0E1E9F0E08081B3
S11304B08870808305C0E1E9F0E0808183608083F7
S11304C028E539E344E75FE3C701B60138D7882359
S11304D03CF48FEF9FEF909399008093980025C090
S11304E020E034E244EF56E4C701B6010E94B10AA9
S11304F018162CF4109299001092980016C020E05F
S113050030E040E053E4C701B6010E94B50A9B0104
S1130510AC0160E074E284EF9AE415D77CD76150B3
S1130520710970939900609398001092950010924D
S11305309400C0923802D0923902E0923A02F092CA
S11305403B02FF90EF90DF90CF90089580E480937A
S113055090008BE08093910060E070E0CB018BCF42
S1130560EF92FF920F931F93CF93DF938C01660F4B
S1130570660F660F6894EE24E6F8E62AC0E0D0E041
S1130580F801EC0FFD1FF4908C2F8E0DBFDD8F2D25
S1130590B5DD2196C830D10599F7DF91CF911F9130
S11305A00F91FF90EF9008954F925F926F927F9218
S11305B08F929F92AF92BF92CF92DF92EF92FF926F
S11305C080916002882319F01092600279C48091AE
S11305D02902882309F474C480913202882309F41F
S11305E06FC481E080936002809122028111F7C27E
S11305F00CC380913002811108C080912F028111B7
S113060004C080912E02882319F081E08093320285
S113061080912602882309F458C4109232028091F2
S1130620200281118CC169ED71E081E07FDD609170
S11306302C0270912D0280E090E00F2EF0E44F2EFA
S1130640F2E45F2EFFE06F2E712CF02DA3019201D6
S1130650EFD70F2EF0EA8F2EF6E89F2EAA24A3944C
S1130660B12CF02DA5019401E3D70F2EF0E1CF2E8C
S1130670F7E2DF2EE12CF12CF02DA7019601D8D75B
S1130680822F805D3BDD60912C0270912D0280E011
S113069090E0A3019201CCD7A5019401C9D7A70189
S11306A09601C6D728EE33E040E050E0C1D7822F50
S11306B0805D24DD60912C0270912D0280E090E039
S11306C0A3019201B5D7A5019401B2D7A701960160
S11306D0AFD728EE33E040E050E0AAD724E630E07C
S11306E040E050E0A5D7822F805D08DD60912C02A8
S11306F070912D0280E090E0A301920199D7A501A9
S1130700940196D7A701960193D728EE33E040E0F1
S113071050E08ED724E630E040E050E089D72AE06C
S113072030E040E050E084D7822F805DE7DC6091C8
S11307302C0270912D0280E090E0A301920178D701
S1130740A501940175D7A701960172D728EE33E06D
S113075040E050E06DD724E630E040E050E068D758
S11307602AE030E040E050E063D7862F805DC6DCAD
S113077081E08093200280911E02882341F061E091
S11307808CE890E0EDDE80E1C9DC89E0B7DC8091A3
S11307902C0290912D02803E2EE2920700F581E119
S11307A0BDDC87E4ABDC82E7A9DC81E6A7DC84E678
S11307B0A5DC85E6A3DC8AE3A1DC80E29FDC86E499
S11307C09DDC80911E02882309F4B5C061E08CE8A9
S11307D090E0C6DE80E2A2DC89E090DCACC09C0143
S11307E0205E3E42203D374000F581E197DC87E4FE
S11307F085DC82E783DC81E681DC84E67FDC85E6D8
S11308007DDC8AE37BDC80E279DC84E477DC809144
S11308101E02882309F48FC061E08CE890E0A0DE1A
S113082080E27CDC89E06ADC86C09C01205B364384
S1130830203D374000F581E171DC87E45FDC82E72D
S11308405DDC81E65BDC84E659DC85E657DC8AE323
S113085055DC80E253DC83E451DC80911E02882362
S113086009F469C061E08CE890E07ADE80E256DC4D
S113087089E044DC60C09C0120583E43203D374061
S113088000F581E14BDC87E439DC82E737DC81E683
S113089035DC84E633DC85E631DC8AE32FDC80E278
S11308A02DDC82E42BDC80911E02882309F443C0F2
S11308B061E08CE890E054DE80E230DC89E01EDC0C
S11308C03AC09C0120553644203D374098F481E1DC
S11308D025DC87E413DC82E711DC81E60FDC84E6A7
S11308E00DDC85E60BDC8AE309DC80E207DC81E4CD
S11308F005DC21C080329E44F0F081E10FDC87E406
S1130900FDDB82E7FBDB81E6F9DB84E6F7DB85E6EA
S1130910F5DB8AE3F3DB80E2F1DB83E5EFDB809157
S11309201E02882341F061E08CE890E019DE80E249
S1130930F5DB89E0E3DB81E080932002C6C28130ED
S113094009F03CC166ED71E0F1DB60912A0270911F
S11309502B0280E090E00F2EF0E44F2EF2E45F2EA5
S1130960FFE06F2E712CF02DA301920161D60F2EA2
S1130970F0EA8F2EF6E89F2EAA24A394B12CF02D32
S1130980A501940155D60F2EF0E1CF2EF7E2DF2E0C
S1130990E12CF12CF02DA70196014AD6822F805D1F
S11309A0ADDB60912A0270912B0280E090E0A301FC
S11309B092013ED6A50194013BD6A701960138D6F3
S11309C028EE33E040E050E033D6822F805D96DBA2
S11309D060912A0270912B0280E090E0A3019201C1
S11309E027D6A501940124D6A701960121D628EE85
S11309F033E040E050E01CD624E630E040E050E034
S1130A0017D6822F805D7ADB60912A0270912B02C7
S1130A1080E090E0A30192010BD6A501940108D6D1
S1130A20A701960105D628EE33E040E050E000D659
S1130A3024E630E040E050E0FBD52AE030E040E03E
S1130A4050E0F6D5822F805D59DB60912A027091C7
S1130A502B0280E090E0A3019201EAD5A501940164
S1130A60E7D5A7019601E4D528EE33E040E050E055
S1130A70DFD524E630E040E050E0DAD52AE030E08B
S1130A8040E050E0D5D5862F805D38DB80912A0286
S1130A9090912B02803E4EE2940798F481E13EDB74
S1130AA087E42CDB82E72ADB81E628DB84E626DB8D
S1130AB085E624DB8AE322DB80E220DB86E41EDB9E
S1130AC079C09C01205E3E42203D374098F481E18C
S1130AD025DB87E413DB82E711DB81E60FDB84E6A9
S1130AE00DDB85E60BDB8AE309DB80E207DB84E4CC
S1130AF005DB60C09C01205B3643203D374098F401
S1130B0081E10CDB87E4FADA82E7F8DA81E6F6DAE7
S1130B1084E6F4DA85E6F2DA8AE3F0DA80E2EEDA01
S1130B2083E4ECDA47C09C0120583E43203D374023
S1130B3098F481E1F3DA87E4E1DA82E7DFDA81E647
S1130B40DDDA84E6DBDA85E6D9DA8AE3D7DA80E22D
S1130B50D5DA82E4D3DA2EC09C0120553644203DF8
S1130B60374098F481E1DADA87E4C8DA82E7C6DA52
S1130B7081E6C4DA84E6C2DA85E6C0DA8AE3BEDA5C
S1130B8080E2BCDA81E4BADA15C080329E4490F087
S1130B9081E1C4DA87E4B2DA82E7B0DA81E6AEDA78
S1130BA084E6ACDA85E6AADA8AE3A8DA80E2A6DA91
S1130BB083E5A4DA82E08093200287C1823041F485
S1130BC061EE71E081E0B2DA83E0809320027DC1BE
S1130BD06DEE71E081E0AADA1092200276C1809174
S1130BE0D10190E0880F991F9C01220F331F220F1F
S1130BF0331F820F931F20912C0230912D02820FFC
S1130C00931F90932D0280932C0280912702909140
S1130C1028028931910579F018F40A97B9F407C0CC
S1130C208233910561F08436910581F40CC08AE029
S1130C308093D1010BC084E18093D10107C08EE180
S1130C408093D10103C088E28093D1016DDA81E001
S1130C5065DA69ED71E081E069DA60912C027091E6
S1130C602D0280E090E00F2EF0E48F2EF2E49F2E10
S1130C70FFE0AF2EB12CF02DA5019401D9D40F2E95
S1130C80F0EACF2EF6E8DF2EEE24E394F12CF02DDB
S1130C90A7019601CDD4822F805D30DA60912C02B9
S1130CA070912D0280E090E0A5019401C1D4A701C8
S1130CB09601BED40F2EF0E14F2EF7E25F2E612C89
S1130CC0712CF02DA3019201B3D4822F805D16DA2A
S1130CD060912C0270912D0280E090E0A5019401B6
S1130CE0A7D4A7019601A4D4A3019201A1D428EE0C
S1130CF033E040E050E09CD4822F805DFFD96091C6
S1130D002C0270912D0280E090E0A501940190D412
S1130D10A70196018DD4A30192018AD428EE33E071
S1130D2040E050E085D424E630E040E050E080D458
S1130D30822F805DE3D960912C0270912D0280E0B6
S1130D4090E0A501940174D4A701960171D4A30184
S1130D5092016ED428EE33E040E050E069D424E6FA
S1130D6030E040E050E064D42AE030E040E050E07D
S1130D705FD4822F805DC2D960912C0270912D02C4
S1130D8080E090E0A501940153D4A701960150D4CA
S1130D90A30192014DD428EE33E040E050E048D462
S1130DA024E630E040E050E043D42AE030E040E084
S1130DB050E03ED4862F805DA1D981E1AFD988E48B
S1130DC09DD989E69BD984E799D983E797D98AE3A2
S1130DD095D980E293D9609127027091280280E02E
S1130DE090E0A501940124D4A701960121D4A30184
S1130DF092011ED428EE33E040E050E019D424E6FA
S1130E0030E040E050E014D4822F805D77D96091C7
S1130E1027027091280280E090E0A501940108D493
S1130E20A701960105D4A301920102D428EE33E070
S1130E3040E050E0FDD324E630E040E050E0F8D359
S1130E402AE030E040E050E0F3D3822F805D56D9B1
S1130E50609127027091280280E090E0A50194013E
S1130E60E7D3A7019601E4D3A3019201E1D328EECD
S1130E7033E040E050E0DCD324E630E040E050E0F2
S1130E80D7D32AE030E040E050E0D2D3862F805D13
S1130E9035D98FE233D981E331D980E32FD980E387
S1130EA02DD98091270290912802019690932802CF
S1130EB0809327021092290281E08093220205C0C8
S1130EC0809131028111A1CB94CB80E090E0FF901E
S1130ED0EF90DF90CF90BF90AF909F908F907F90D6
S1130EE06F905F904F900895CF9310922D021092BF
S1130EF02C021092280210922702109232021092B1
S1130F002602109201018CEF8093000110922502B9
S1130F101092240280E991E09093070180930601E6
S1130F20C1E0C093230281E090E090930501809397
S1130F300401FAD868E072E081E0F8D8C093D101E6
S1130F40C0931F0210921E02CF91089593B1909501
S1130F5091709093310223B1209522702093300236
S1130F6043B14095447040932F0233B130953870AB
S1130F7030932E0280916202833009F480C028F4F9
S1130F80813021F108F078C009C0853009F47FC0B0
S1130F9008F479C0863009F082C07DC0911104C084
S1130FA081E0809362027EC0211104C081E08093BD
S1130FB06202CFC0411104C081E080936202C9C0C3
S1130FC03111C7C081E080936202C3C0992309F440
S1130FD0B6C0222371F0442309F4B4C0332309F4C6
S1130FE0B1C082E0809362027FDF81E080932102BE
S1130FF0B0C04111AEC031112AC0809121028111CB
S113100026C083E08093620280B18F3309F056C01A
S113101052C041119EC031119CC0809121028111A6
S113102091C084E08093620280B18F3C09F057C084
S113103053C031118EC08091210281118AC085E094
S11310408093620280B1833F09F05AC056C03323B3
S113105009F478C091117DC021117BC0411179C080
S113106080912102811175C086E08093620280B173
S11310708C3F09F056C052C0109262026AC081E0EF
S1131080809362025FC081E0809362025BC081E072
S11310908093620257C081E08093620253C0109231
S11310A0620257C0211155C0411153C0311151C0C2
S11310B0109221024EC089B1803821F08091320211
S11310C0811147C080912602811143C081E0809341
S11310D02902809321023DC089B1803821F080919A
S11310E03202811136C080912602811132C081E022
S11310F080932902809321022CC089B1803821F089
S113110080913202811125C080912602811121C073
S113111081E080932902809321021BC089B1803829
S113112021F080913202811114C080912602811134
S113113010C081E080932902809321020AC021110A
S113114068CF04C0992309F4ADCF03C0411171CF16
S11311507ECF80E090E0089580E784B98FEB85B975
S11311608FEF81B912B887B918B88AB91BB8EED90C
S11311700E94AD000E94940068E072E081E00E9449
S1131180960061E070E080E090E00E94BB0004D82B
S113119010923D0210923C02809106019091070149
S11311A0A0E0B0E080933E0290933F02A0934002FF
S11311B0B09341028093420290934302A09344026D
S11311C0B09345028CE591E09093470280934602E8
S11311D0109249021092480281E090E0A0E0B0E051
S11311E080934A0290934B02A0934C02B0934D0219
S11311F080934E0290934F02A0935002B0935102F9
S113120086EA97E09093530280935202109255021B
S1131210109254028091040190910501A0E0B0E085
S11312208093560290935702A0935802B0935902A8
S113123080935A0290935B02A0935C02B0935D0288
S113124084ED92E090935F0280935E0261E070E02F
S113125080E090E00E94BB000E94CC000F2EFEE3D1
S11312608F2EF2E09F2EF02D772473940F2EF6E547
S1131270AF2EF2E0BF2EF02D0F2EFCE3CF2EF2E0C6
S1131280DF2EF02D0F2EF0E6EF2EF2E0FF2EF02DE4
S113129080912302882369F08091060190910701CF
S11312A0A0E0B0E0F40180839183A283B383109221
S11312B0230280911F02882331F070920101109261
S11312C0320210921F028091040190910501A0E066
S11312D0B0E0F50180839183A283B383E6018E019C
S11312E04E815F81688579858A819B81AC81BD81CE
S11312F0481759076A077B0758F0EA85FB858881F8
S113130099810995998388831E821F82188619867C
S1131310F80186819781A085B1850196A11DB11D33
S113132086839783A087B1872C96CE15DF05B9F6FF
S1131330809137028823E1F310923702A9CF9CD021
S113134008F481E008950CD0D2C0CAD040F0C1D0D6
S113135030F021F45F3F19F0B3C05111FCC0B6C0A6
S1131360D7D098F39923C9F35523B1F3951B550BA3
S1131370BB27AA2762177307840738F09F5F5F4F64
S1131380220F331F441FAA1FA9F333D00E2E3AF0A5
S1131390E0E830D091505040E695001CCAF729D0BF
S11313A0FE2F27D0660F771F881FBB1F261737070E
S11313B04807AB07B0E809F0BB0B802DBF01FF273E
S11313C093585F4F2AF09E3F510568F079C0C3C01F
S11313D05F3FECF3983EDCF3869577956795B79578
S11313E0F7959F5FC9F7880F911D9695879597F993
S11313F00895E1E0660F771F881FBB1F621773070C
S11314008407BA0720F0621B730B840BBA0BEE1F20
S113141088F7E095089504D06894B1119CC00895AC
S11314207FD088F09F5790F0B92F9927B751A0F03B
S1131430D1F0660F771F881F991F1AF0BA95C9F764
S113144012C0B13081F086D0B1E0089583C0672F17
S1131450782F8827B85F39F0B93FCCF38695779514
S11314606795B395D9F73EF49095809570956195FD
S11314707F4F8F4F9F4F0895990F0008550FAA0B68
S1131480E0E8FEEF16161706E807F907C0F0121693
S11314901306E407F50798F0621B730B840B950B96
S11314A039F40A2661F0232B242B252B21F40895EB
S11314B00A2609F4A140A6958FEF811D811D089588
S11314C097F99F6780E870E060E008959FEF80ECF3
S11314D0089500240A941616170618060906089596
S11314E000240A9412161306140605060895092EFC
S11314F00394000C11F4882352F0BB0F40F4BF2B6B
S113150011F460FF04C06F5F7F4F8F4F9F4F0895AA
S113151057FD9058440F551F59F05F3F71F04795A0
S1131520880F97FB991F61F09F3F79F08795089585
S1131530121613061406551FF2CF4695F1DF08C0A4
S1131540161617061806991FF1CF869571056105C1
S113155008940895E894BB2766277727CB0197F969
S113156008958ADF08F48FEF08950BD0C0CFB1DF60
S113157028F0B6DF18F0952309F0A2CFA7CF1124E5
S1131580EACFC6DFA0F3959FD1F3950F50E0551F26
S1131590629FF001729FBB27F00DB11D639FAA27C4
S11315A0F00DB11DAA1F649F6627B00DA11D661F13
S11315B0829F2227B00DA11D621F739FB00DA11D34
S11315C0621F839FA00D611D221F749F3327A00DEE
S11315D0611D231F849F600D211D822F762F6A2F8A
S11315E011249F5750408AF0E1F088234AF0EE0F0F
S11315F0FF1FBB1F661F771F881F91505040A9F71C
S11316009E3F510570F05CCFA6CF5F3FECF3983E50
S1131610DCF3869577956795B795F795E7959F5F82
S1131620C1F7FE2B880F911D9695879597F908951C
S1131630052E97FB16F4009406D057FD0CD013D05A
S113164007FC09D07EF490958095709561957F4F45
S11316508F4F9F4F089550954095309521953F4F5A
S11316604F4F5F4F0895A1E21A2EAA1BBB1BFD0129
S11316700DC0AA1FBB1FEE1FFF1FA217B307E4076D
S1131680F50720F0A21BB30BE40BF50B661F771FC5
S1131690881F991F1A9469F76095709580959095A5
S11116A09B01AC01BD01CF010895F894FFCF6A
S11316AEFC01630001009001FC00FC00F300F30058
S11316BECF00CF00CF00CF00FC00FC00F300F300FE
S11316CECF00CF00CF00CF00FC00FC00F300F300EE
S11316DECF00CF003F003F00FC00FC00FC00FC00EC
S11316EECF00CF00F300F300CF00CF00CF00CF0028
S11316FE3F003F003F003F003F003F003F003F00E0
S113170E3F003F00FC00FC003F003F00CF00CF0035
S113171E3F003F003F003F003F003F00CF003F002F
S113172ECF00CF003F00CF00FC00FC00F300F3001D
S113173ECF00CF00CF00CF00FC00FC00F300F3007D
S113174ECF00CF00CF00CF00FC00FC00F300F3006D
S113175ECF00CF003F003F00F300CF003F00F30067
S113176ECF003F00F300F3003F003F00CF00CF0057
S113177E010101000000482E2053636F72653A2068
S113178E00506C617920416761696E3F005072654B
S113179E7373203420627574746F6E7320746F20AB
S11317AE7265737461727400507265737320416E46
S11117BE79204B657920746F20506C6179009E
S9030000FC
